:020000040800F2
:1000000040170020490100085F2000086F1E00080B
:100010005D200008D1020008AB3C00080000000091
:10002000000000000000000000000000772300082E
:10003000AD060008000000007523000879230008C1
:100040006301000863010008630100086301000800
:1000500063010008630100086301000863010008F0
:1000600063010008630100086301000863010008E0
:1000700063010008630100086301000863010008D0
:1000800063010008630100086301000863010008C0
:10009000353C0008630100086301000863010008A3
:1000A00063010008630100086301000863010008A0
:1000B0006301000863010008630100086301000890
:1000C0006301000863010008630100086301000880
:1000D0006301000863010008630100086301000870
:1000E0006301000863010008630100086301000860
:1000F0006301000863010008630100086301000850
:10010000630100086301000863010008630100083F
:10011000630100086301000863010008630100082F
:10012000630100086301000863010008630100081F
:10013000DFF810D000F080F80048004721400008A8
:10014000AFF300804017002006488047064800476C
:10015000FEE7FEE7FEE7FEE7FEE7FEE7FEE7FEE777
:10016000FEE7FEE7F523000831010008202A04DB42
:10017000203A21FA02F00021704721FA02F3D04020
:10018000C2F12002914008431946704740EA01033A
:100190009B0703D009E008C9121F08C0042AFAD23D
:1001A00003E011F8013B00F8013B521EF9D2704701
:1001B000D2B201E000F8012B491EFBD270470022A9
:1001C000F6E710B513460A4604461946FFF7F0FF56
:1001D000204610BD2DE9F05F0546002092469B4663
:1001E00088460646814640241BE02846414647464D
:1001F0002246FFF7BBFF53465A46C01A914110D31F
:1002000011461846224600F029F82D1A67EB01081E
:100210004F4622460120002100F020F817EB00098C
:100220004E41201EA4F10104DFDC484631462A4637
:100230004346BDE8F09F0000064C074D06E0E0682D
:1002400040F0010394E8070098471034AC42F6D31D
:10025000FFF772FFD0400008F0400008202A04DBBE
:10026000203A00FA02F1002070479140C2F12003C9
:1002700020FA03F319439040704770B58C1810F8BA
:10028000015B15F0070301D110F8013B2A1106D1DB
:1002900010F8012B03E010F8016B01F8016B5B1EF5
:1002A000F9D12B0705D40023521E0DD401F8013BD0
:1002B000FAE710F8013BCB1A921C03E013F8015B3C
:1002C00001F8015B521EF9D5A142D8D3002070BDC0
:1002D000FEE700000848074901604FF4E131416042
:1002E00000218160C160016181610C21416101F0E7
:1002F000FBBC0000003801400C02002010B5D0F813
:10030000B822044692F81834022B07D0032B05D0EC
:10031000052B03D0062B01D0092B13D1022082F824
:100320001804002382F8103482F8113482F8123451
:1003300082F8133482F8140482F81534C2F80034B9
:10034000C2F804340848407DC00607D5204602F0B4
:10035000A0FF2046BDE8104002F02CBE4888BDE852
:10036000104000F031BA0000D801002070B50546F9
:10037000D0F8B8420E46C888D5F8B81291F81814CB
:10038000A0B1022901D0052919D17088C4F8000450
:10039000F2880320C4F8042484F8180484F81404B0
:1003A00021462846BDE8704002F0D6B80FA003F001
:1003B0007DFC94F81804052807D0022805D03146A2
:1003C0002846BDE8704002F0BCB8012084F819044A
:1003D000062184F81814002084F8110484F812040B
:1003E00084F8130484F8141470BD0000CFC2D4D86C
:1003F000CDEAB3C9BAF3D7B4CCAC3D25640D0A003D
:1004000070B5D0F8B8420546002194F818040328C6
:1004100002D006284BD12EE0D4F8040448B30420BF
:1004200084F8180484F8111484F8121484F813144E
:1004300084F81404227822A0D4F8001403F036FCC7
:10044000D4F8000410B92078412809D0D5F8BC129E
:10045000D4F8080404F582628B690121984726E0EC
:10046000D5F8BC12D4F8080404F582628B69002127
:10047000F4E7052011E094F81904012801D038B1FF
:1004800015E0072084F81804012284F8112408E0FC
:100490001748007D40070AD5022084F8180484F824
:1004A000111484F8121484F8131484F8140404F555
:1004B00082612846BDE87040062202F067B800005D
:1004C000686466752D3E77626C6F636B5F6E756DE9
:1004D000203D25643B686466752D3E6275666665E1
:1004E000722E64385B305D203D20256400000000E2
:1004F000D801002070B50646D0F8B8421B48002548
:1005000084F81954007D40070BD5062084F81804A0
:1005100084F8115484F8125484F8135484F81404A1
:1005200070BD13A003F0C2FB082084F8180484F8FF
:10053000115484F8125484F8135484F81404304687
:1005400002F0A7FED6F8BC028068804710A003F036
:10055000ADFBBFF34F8F11480168114A01F4E06110
:1005600011430160BFF34F8F00BFFDE7D8010020AA
:100570004446555F53544154455F4D414E494645AD
:1005800053545F574149545F52455345540D0A0037
:10059000CFB5CDB3D6D8C6F40D0A00000CED00E0FF
:1005A0000400FA0570B50A460546C988D0F8B84275
:1005B0000020002964D094F81814022906D00929D3
:1005C00004D0C4F80404C4F8000453E05188C4F80B
:1005D0000014D388C4F8043451B301293FD9092247
:1005E00084F8182484F8110484F8120484F813049D
:1005F000880284F81424D4F80814A0F50060461882
:10060000314625A004F2044403F050FBD5F8BC02A7
:100610002268A4F2044443692146304698470146C3
:10062000B4F8040482B22846BDE8704001F0AEBFC1
:10063000032B01D9022100E0092184F8181484F861
:10064000110484F8120484F8130484F8141420703C
:10065000212060704120A07003222146E3E70F2192
:1006600084F8181484F8110484F8120484F813042C
:1006700084F814142846BDE87040114601F061BFAB
:10068000022184F8181484F8110484F8120484F800
:10069000130484F8141470BDB6C1C8A1B9CCBCFE53
:1006A000B5D8D6B73D25780D0A000000704772B660
:1006B000FEE7000006490020C8610648016941F0D4
:1006C00004010161016941F04001016170470000CE
:1006D000200E002000200240064A0021D161064978
:1006E0000A6942F002020A614861086940F040006C
:1006F00008617047200E002000200240044B0022B9
:10070000DA61044A136943F0010313610180704701
:10071000200E00200020024014480022C168CB06B1
:10072000134904D5CA6942F00202CA611022C368A3
:100730005B0705D5CB6943F00103CB6142F00402AE
:10074000C369DB0707D0CB6943F00403CB61C16900
:1007500021F00101C161A2F58071013901D0C260AF
:100760007047C16921F00101C1617047002002405A
:10077000200E002070B5054600F0ECF90646114C3D
:1007800009E0681C07D025B100F0E4F9801BA842FD
:1007900001D9032070BDE068C007F2D1E06880068F
:1007A00001D52020E060E068C00605D4E069C007FC
:1007B00002D1E068400703D5FFF7AEFF012070BD0E
:1007C000002070BD0020024070B5044600F0C2F960
:1007D0000546601C02D004480078044400F0BAF9D1
:1007E000401BA042FAD370BD880100202DE9F047DC
:1007F000054626480F460126017E01290FD001211A
:10080000814601762868DFF888804CF2503402284F
:1008100008D0A2462046FFF7ADFFA8B131E0022084
:10082000BDE8F0872046FFF7A5FF08BB0120FFF7D2
:1008300041FF2046FFF79EFFD8F81010064621F032
:100840000401C8F810101CE04FF0FF303860AC68AD
:1008500011E02046FFF740FF5046FFF78BFFD8F826
:100860001010060021F00201C8F8101001D03C6001
:1008700007E004F50064D5E9020100EBC120A042C5
:10088000E7D8002189F818103046C9E7200E00206B
:10089000002002400348016941F08001016100200D
:1008A00070470000002002402DE9F05F07461C4819
:1008B00088460024017E15461E46012909D00121E3
:1008C000814601764CF2503A5046FFF753FF18B17B
:1008D00022E00220BDE8F09F012F02D0022F00D0BD
:1008E0000427D346DFF83CA0220128463146FFF713
:1008F0003DFC81B208EB4400FFF700FF5846FFF7CC
:1009000039FFDAF8102022F00102CAF8102018B9D5
:10091000641CE4B2BC42E7D3002289F81820D9E76E
:10092000200E002000200240064900200A6912061D
:1009300007D5054A4A60054A4A600969090600D593
:10094000012070470020024023016745AB89EFCDAD
:100950002DE9F84FDFF8C891002409F1040A0AF1E3
:10096000040B23460F270BF1040ED1E00125A5400F
:1009700006EA0502AA4276D1DFF8A8C14E68A6EBC6
:100980000C0866452BD00DDC032E34D005DC36B3C5
:10099000012E19D0022E2FD11BE0112E16D0122EAF
:1009A0002AD119E0B8F5881F19D006DCB8F5803FC8
:1009B00015D0B8F5801F1FD111E0B8F5001F0ED07B
:1009C000B8F5041F18D10AE0CB6815E0CB681B1DF1
:1009D00012E0CB6808330FE0CB680C330CE08B6877
:1009E0002BB1012B4FF0080303D0456104E0042331
:1009F00002E0056100E00023FF2A01D8064601E07D
:100A000000F104064FEA840501D9A5F12005D6F8C6
:100A1000008007FA05FC28EA0C0803FA05F548EA05
:100A20000508C6F800804D68ED0070D53E4DAE69F2
:100A300046F00106AE61AD6924F0030605F001053C
:100A400000953A4D06EB050CDCF80850A607360F6A
:100A500007FA06F825EA0805DFF8D480404503D1F7
:100A60004FF0000825E052E0DFF8C880404502D191
:100A70004FF001081DE0DFF8C080404502D14FF083
:100A8000020816E0DFF8B480404502D14FF00308B9
:100A90000FE0DFF8AC80404502D14FF0040808E0D9
:100AA000DFF8A080404502D14FF0050801E04FF08B
:100AB000060808FA06F848EA0508CCF808804D68E8
:100AC000D9F80060ED034D4601D5164300E096438A
:100AD0002E604D68DAF80060AD03554601D5164327
:100AE00000E096432E604D68DBF80060ED025D4645
:100AF00001D5164300E096432E604D68DEF8006095
:100B0000AD02754601D5164300E096432E60641C85
:100B10000A681646E2407FF429AFBDE8F88F00006E
:100B200000040140000011100010024000000140CC
:100B300000080140000C0140001001400014014079
:100B400000180140001C01408068084000D00120CE
:100B5000704700000148806870470000880100204D
:100B60000248816802781144816070478801002042
:100B7000074810B5016841F010010160032000F042
:100B800075F80F2000F006F800F024F8002010BDE2
:100B90000020024070B50D4D04464FF47A7128785C
:100BA000B1FBF0F00A490968B1FBF0F001F088F8F8
:100BB00048B9102C07D200222146501E00F036F80A
:100BC00000206C6070BD012070BD00008801002015
:100BD000940100200C4808B5816941F00101816150
:100BE000816901F001010091C16941F08051C16149
:100BF000C06900F0805000900448416821F0E06135
:100C000041F00071416008BD001002400000014049
:100C1000002809DB00F01F020121914040098000FB
:100C200000F1E020C0F8001170470000F0B40E4B56
:100C30001B680C46C3F30223C3F10705042D00D93A
:100C40000425191D072901D2002300E0DB1E01261F
:100C500006FA05F1491E214099409E40761E164035
:100C60003143F0BC03F032B80CED00E0064900F06F
:100C7000070208684FF6FF03184040EA0220034AC3
:100C800010430860704700000CED00E00000FA051A
:100C900010B50C0607D501F0070101EB810100EB4F
:100CA000C100283005E001EB810100EBC10000F537
:100CB000B47099B232B1012202730181190C4181E1
:100CC000002010BD00220273C180F9E7704701EBDC
:100CD000810200EBC202D0F8E802D26B01F067BFDC
:100CE00001EB810200EBC202D0F8E802D2F87C21CD
:100CF00001F0C0BF70B5044601F00F006268904279
:100D000001D9012070BD0B0601F0070000EB800146
:100D100004EBC1014FF001024FF0000503D581F84B
:100D20002920283103E081F8695101F5B4718D70F3
:100D3000087094F8A802012808D084F8A822206836
:100D400002F012FC84F8A852002070BD022070BD91
:100D50002DE9F05F04685FEA424C0B788D69B4F8C6
:100D600050C04FF000064BF68F7948F2800A48F6E3
:100D70008F7B48F2C00E4FF480672AD54FF00208EF
:100D800008EBC308C44407EB4C07E45BC4F3090455
:100D9000A54203D32D1B8D6101D00BE08E61066847
:100DA00036F8235005EA090585F4005545EA0A0599
:100DB00026F82350520609D50D78036833F825200C
:100DC00002EA0B0242EA0E0223F8252084B30A89C4
:100DD00029E04FF0060808EBC308C44407EB4C07B2
:100DE000E45BC4F30904A54203D32D1B8D6101D03C
:100DF0000BE08E61066836F8235005EA090585F494
:100E0000005545EA0A0526F82350520609D40B7806
:100E1000056835F8232002EA0B0242EA0E0225F8A3
:100E200023202CB14A8949690068234602F00CFF4F
:100E30002046BDE8F09F2DE9F05F054600680C46AE
:100E40005FEA426C16468B692278B0F850C048F6CB
:100E50008F774CF280094FF6FF7B4FF4004E4FF432
:100E6000806A4FF000017BD54FF0020808EBC20802
:100E7000E0440AEB480C30F80C00C0F30900834250
:100E800011D91B1AA3610FD0730407D52E6836F849
:100E900022303B4043EA090326F8223094F824200C
:100EA000012A50D04EE1A161607810B1012813D021
:100EB0001AE02868B0F85030184400EB0210B0F87F
:100EC000042422F4F842A0F80424B0F8042442F4E4
:100ED0000042A0F8042407E02868B0F85030184415
:100EE00000EB0210A0F804146278286812B1012AFD
:100EF00011D018E0B0F850100844217800EB011030
:100F0000B0F80C1421F4F841A0F80C14B0F80C144B
:100F100041F4004105E0B0F850201044227800EB85
:100F20000210A0F80C1421782846FFF7D0FE7004B8
:100F3000B8D521782A6832F82100384040EA090003
:100F400022F82100FEE0626902446261E269024423
:100F5000E2612369226A9A4203D31846111A04E017
:100F600038E084F824100AB110462162617811B18A
:100F7000012923D02BE02968B1F8502011442278B0
:100F800001EB021101F2044148B13E280FD842089A
:100F9000C30700D0521C0BEA82220A8017E00A889D
:100FA00022F4F8420A800A8842F40042F5E7420936
:100FB000C30600D1521E4EEA8222EEE72968B1F83C
:100FC00050201144227801EB0211A1F8040483B2ED
:100FD0002289B3E04FF0060808EBC208E0440AEBB0
:100FE000480C30F80C00C0F30900834211D31B1ADF
:100FF000A3610FD0730407D42E6836F822303B402B
:1010000043EA090326F8223094F82420012A50D01C
:1010100098E0A161607810B1012813D01AE0286827
:10102000B0F85030184400EB0210B0F8042422F459
:10103000F842A0F80424B0F8042442F40042A0F8D6
:10104000042407E02868B0F85030184400EB021080
:10105000A0F804146278286812B1012A11D018E0AF
:10106000B0F850100844217800EB0110B0F80C14CF
:1010700021F4F841A0F80C14B0F80C1441F400412C
:1010800005E0B0F850201044227800EB0210A0F8E0
:101090000C1421782846FFF71AFE700452D42278E7
:1010A000296831F82200384040EA090021F822007E
:1010B00048E0626902446261E2690244E2612369D4
:1010C000226A9A4203D31846111A216204E00AB137
:1010D0001046216284F824106278296812B1012A2E
:1010E00022D029E0B1F850201144227801EB0211FE
:1010F00001F20C4148B13E280FD84208C30700D086
:10110000521C0BEA82220A8016E00A8822F4F84276
:101110000A800A8842F40042F5E74209C30600D17A
:10112000521E4EEA8222EEE7B1F850201144227896
:1011300001EB0211A1F80C04628983B2616928688D
:1011400002F0A0FD21782A6832F8210048F6BF732A
:10115000184080F0300048F28003184322F8210044
:101160000020BDE8F09F2DE9F04104460F0601F094
:10117000070000EB800104EBC1014FF001064FF0C6
:10118000000503D581F82960283103E081F8695111
:1011900001F5B47108700A61CB704A7802B1C88158
:1011A000022B00D10D7194F8A802012809D084F80F
:1011B000A862206802F094F8284684F8A852BDE896
:1011C000F0810220FBE770B50C4601F0070505EB46
:1011D000850100EBC101C1E95F230022C1F8842130
:1011E00081F8692181F8685101F5B47162070068DE
:1011F00002F010FA002070BD70B504460D4601F0F3
:1012000007006168884201D9012070BD29064FF0AE
:1012100000064FF0010207D500EB800104EBC1018D
:1012200081F82920283107E005EB850104EBC10195
:1012300081F8696101F5B4718A70087094F8A802A8
:10124000012807D084F8A822206802F0C9F96807AD
:1012500002D006E0022070BD04F52C71206802F077
:1012600081F984F8A862002070BD70B50C4601F0C9
:10127000070505EB850100EBC101C1E90F23012240
:1012800081F84C208B6400234B6481F8292001F8FD
:10129000285F6207006802F0BDF9002070BD1FB52D
:1012A0000446006802F0CCFC000402D5204600F0A1
:1012B000D7FE206802F0C4FC40050CD5206830F849
:1012C000441F21F480610180204600F01FF90021B5
:1012D000204600F036F9206802F0B2FC400405D543
:1012E000206830F8441F21F480410180206802F01A
:1012F000A7FC800405D5206830F8441F21F4005174
:101300000180206802F09CFCC00414D5206830F8ED
:10131000401F21F004010180206830F8401F21F0B7
:1013200008010180204600F004F9206830F8441FCD
:1013300021F480510180206802F082FC00053ED536
:1013400022680020694632F8203021F81030401C15
:10135000C0B20828F7D332F8400F40F001001080E7
:10136000206830F8402F22F0010202802068B0F897
:1013700044205205FBD530F8442F22F480620280CD
:101380000020236831F8102023F82020401CC0B230
:101390000828F6D3206830F8401F41F0080101808A
:1013A000206830F8441F21F400610180206830F883
:1013B000401F41F004010180204600F00FF9206831
:1013C00002F03EFC800508D5206830F8441F21F467
:1013D00000710180204600F0B0F8206802F030FC77
:1013E000C00505D5206830F8441F21F480710180C4
:1013F0001FBD00002DE9F04186B0040004D094F830
:10140000A902002520B108E0012006B0BDE8F08166
:1014100084F8A852204600F05BF8032084F8A90263
:10142000206802F098F804F11001142288466846FA
:10143000FEF7ACFE94E80F0002F07EF80226D0BB67
:101440000021206802F016FC002001270FE000BFF9
:1014500000EB800104EBC10181F8297001F8280F2D
:10146000C881CD700D614D61401CC0B28D61616855
:101470008142EDD8002011E000EB800104EBC101B6
:1014800081F8695181F8680181F86B51C1F8785190
:10149000C1F87C51401CC0B2C1F8805161688142E2
:1014A000EAD8142241466846FEF770FE94E80F0021
:1014B00002F048F810B184F8A962A5E784F8245036
:1014C00084F8A972206802F03BF800209DE7000034
:1014D00008B500680B49884212D10B48C16941F434
:1014E0000001C161C069002200F4000000901146B3
:1014F0001420FFF79BFBBDE808401420FFF788BBD2
:1015000008BD0000005C00400010024070B50446B9
:1015100080680125022801D0FFF7C9F82946D4F8D0
:10152000E80201F078FCD4F8E802BDE8704001F070
:1015300034BCD0F8E80201F058BCD0F8E80201F061
:101540005EBC10B5044690F8A80201280BD001201B
:1015500084F8A80284F82410206802F08DFB002093
:1015600084F8A80210BD022010BDD0F8E82200F5D2
:101570002C71104601F05BBC10B5044690F8A8022F
:10158000012810D0012084F8A802206802F048FB4E
:1015900001212046FFF79AFB206801F0CFFF0020D1
:1015A00084F8A80210BD022010BD10B5044690F8C2
:1015B000A802012810D0012084F8A802206801F0B8
:1015C000CAFF00212046FFF781FB206801F0B8FF29
:1015D000002084F8A80210BD022010BD10B50446FA
:1015E000D0F8E80201F06BFCA069002804D00348A1
:1015F000016841F00601016010BD000010ED00E03F
:101600002DE9F84305460078354CC00754D0E06911
:101610000026C00008D4E06940F08050E061E06935
:10162000012600F0805000902E480168C90512D4B0
:101630000168804641F480710160FFF78BFA07462C
:1016400005E000BFFFF786FAC01B642823D8D8F84E
:101650000000C005F6D5206A10F4407021D0A9889A
:1016600001F4407181421CD0206A1F49012220F4FC
:1016700040700A6000220A602062C00711D0FFF7A4
:1016800069FA074641F2883808E000BFFFF762FABE
:10169000C11B414502D90320BDE8F883206A8007B9
:1016A000F4D5206A696820F44070084320621EB1B6
:1016B000E06920F08050E0612878800705D56068F7
:1016C000A96820F44040084360602878C00605D52A
:1016D0006068696920F48000084360600020DBE7EF
:1016E0000010024000700040400442422DE9F047E3
:1016F0000F46050061D0434E306800F00700B84245
:1017000009D2306820F0070038433060306800F0BC
:101710000700B84251D128683B4C810712D54007D9
:1017200003D5606840F4E06060602878000703D566
:10173000606840F4605060606068A96820F0F00064
:10174000084360602878C00728D06868012810D056
:101750002168022810D0890700292EDA616821F05B
:10176000030101436160FFF7F5F9804641F28839D2
:101770000DE021688903EFE78901EDE7FFF7EAF95A
:10178000A0EB0801494502D90320BDE8F087606855
:10179000696800F00C00B0EB810FEFD1306800F009
:1017A0000700B8420BD9306820F00700384330609A
:1017B000306800F00700B84201D00120E5E7287842
:1017C000400705D56068E96820F4E0600843606080
:1017D0002878000706D56068296920F4605040EA3F
:1017E000C100606000F0A6F86168084AC1F3031107
:1017F000515CC8400649086006480068FFF7CAF90E
:101800000020C2E700200240001002408C40000887
:10181000940100208C0100202DE9F041FFF79AF996
:10182000304C0546206840F00100206005E000BF14
:10183000FFF790F9401B022843D820688007F7D5AE
:10184000206820F0F80040F080002060FFF782F967
:1018500000250646656041F2883704E0FFF77AF913
:10186000801BB8422DD8606810F00C0FF6D11F49CC
:101870001D4808601E480068FFF78CF910B1012070
:10188000BDE8F081FFF766F90646206820F0807019
:10189000206004E0FFF75EF9801B022811D8206861
:1018A0008001F7D46560FFF755F90646206820F4FB
:1018B0001020206007E000BFFFF74CF9801B642870
:1018C00001D90320DCE720688003F5D4206820F4E8
:1018D00080202060606A40F080706062A560002017
:1018E000CEE700000010024000127A0094010020B0
:1018F0008C0100200448054900684968044AC1F386
:101900000221515CC8407047940100200010024041
:101910009C4000080448054900684968044AC1F32E
:10192000C221515CC8407047940100200010024061
:101930009C40000812A185B00FC98DE80F0014A0CB
:10194000144A006804905168134801F00C03042BFA
:1019500010D0082B0ED1C1F38343C9031DF8030037
:101960000AD5516804AAC1F34041515C0A4A504368
:10197000B0FBF1F005B0704708494843FAE70000B2
:1019800002030405060708090A0B0C0D0E0F1010C0
:10199000010200000010024000127A0000093D0020
:1019A0002DE9F84F040070D02078C04DC00749D011
:1019B0006868C0F38100012807D06868C0F381001F
:1019C000022809D16868C00306D52868800339D584
:1019D00060680028E7D035E06068B0F5803F0BD044
:1019E00010B1B0F5A02F11D0286820F48030286005
:1019F000286820F4802002E0286840F480302860C5
:101A0000606890B1FFF7A6F806460AE0286840F43F
:101A100080202860F0E700BFFFF79CF8801B642857
:101A200073D828688003F7D50CE0FFF793F80646D3
:101A300005E000BFFFF78EF8801B6428F0D8286807
:101A40008003F7D420789A4E80074FF001094FF0B9
:101A5000000839D5686810F00C0F07D06868C0F32B
:101A60008100022809D16868C00306D4286880076D
:101A700014D52069012808D110E02069B0B1C6F85A
:101A80000090FFF767F8074605E00AE1FFF762F804
:101A9000C01B0228C4D828688007F7D52868616968
:101AA00020F0F80040EAC10028600DE0C6F8008090
:101AB000FFF750F8074604E0FFF74CF8C01B022878
:101AC00023D828688007F7D4207800072CD57948D8
:101AD000A169D9B1C0F80090FFF73CF8074604E0CF
:101AE000FFF738F8C01B02280FD8686A8007F7D5BF
:101AF00071484FF4FA510068B0FBF1F0009000BF5C
:101B00000098411E0091FAD20EE080E0C0F80080FB
:101B1000FFF720F8074604E0FFF71CF8C01B022877
:101B200075D8686A8007F7D42078400760D5E869DF
:101B30000027C00008D4E86940F08050E861E869F7
:101B4000012700F0805000905C480168C90513D45B
:101B50000168834641F480710160FEF7FBFF824615
:101B600006E000BFFEF7F6FFA0EB0A0064284ED89F
:101B7000DBF80000C005F5D5E06801280AD008B1FF
:101B8000052813D0286A20F001002862286A20F076
:101B9000040002E0286A40F001002862E06841F297
:101BA000883B98B1FEF7D6FF82460BE0286A40F0EA
:101BB00004002862EEE700BFFEF7CCFFA0EB0A01AD
:101BC00059455AD8286A8007F6D50CE0FEF7C2FFBF
:101BD000824605E0FEF7BEFFA0EB0A0159454CD84E
:101BE000286A8007F6D41FB1E86920F08050E861C8
:101BF000E06988B36968C1F38101022944D00228F1
:101C0000C6F8608004D0FEF7A5FF044638E034E053
:101C1000FEF7A0FF074604E0FEF79CFFC01B02286A
:101C20002BD828688001F7D4206AB0F5803F05D111
:101C30006868A16820F4003008436860D4E90801AE
:101C40000843696821F4741108436860C6F860901D
:101C5000FEF780FF044606E025E000BFFEF77AFFAE
:101C6000001B022809D828688001F7D51BE000BFB7
:101C7000FEF770FF001B022802D90320BDE8F88F91
:101C800028688001F4D40EE00128F7D06868226A41
:101C900000F48031914204D1616A00F470108842EE
:101CA00001D00120EAE70020E8E700000010024030
:101CB0000000424280044242940100200070004033
:101CC00010B5401EB0F1807F01D3012010BD4FF050
:101CD000E02460610F21601701F0F8FF0020A0618F
:101CE00007202061002010BD70B5040004D094F8D6
:101CF0003D00002510B106E0012070BD84F83C5085
:101D0000204600F023F8242084F83D002068C168B4
:101D100021F40051C160204600F06EFB206801698B
:101D200021F4904101612068416921F02A0141615B
:101D30002068C16841F40051C1602564202084F806
:101D40003D0084F83E00002070BD0000194810B529
:101D5000816986B041F480418161816901F48041EB
:101D60000491816941F004018161816901F00401FC
:101D70000491816941F00401816180690E4C00F099
:101D8000040004904FF400700090022001900120A4
:101D900002900320039069462046FEF7D9FD2015E6
:101DA00000900020019069462046FEF7D1FD06B064
:101DB00010BD000000100240000801402DE9F8436A
:101DC000044690F83D001F4616460D4620284CD18B
:101DD000C5B1BEB194F83C00012846D0012084F87A
:101DE0003C004FF00008C4F84080212084F83D00FA
:101DF000FEF7B0FEA6848146E684A068B0F5805F59
:101E000003D004E00120BDE8F883206928B12E4604
:101E10005FF0000584F83C800EE00026FAE78021A0
:101E2000204600F045FBA0B9AEB116F8010B2168C1
:101E30004860E08C401EE084E08C4B464FF000028E
:101E400000970028EBD14FF04001204600F030FB16
:101E500030B10320D7E735F8020BC0F30800E6E7FE
:101E6000202084F83D000020CDE70220CBE7FEE7EC
:101E7000F0B500230A24302537261F4611E000BFA5
:101E8000B4EB107F02D905EB107C01E006EB107C6F
:101E900001F813C001EB430C00015B1C8CF80170CE
:101EA000DBB29342ECD3F0BD08B515480024009096
:101EB000FFF7B2FC4FF0E021002008614861886123
:101EC000012080F31088811EA00000F1E020C0F8FE
:101ED0008011C0F88012641C082CF5D3002080F318
:101EE0001088009800994068096881F308880021EB
:101EF00081F31488804703A001F0D8FEFBE70000BF
:101F000000000108415050CCF8D7AAB3F6B4ED0D4B
:101F10000A00000010B5FEF7BDFC002010BD00B5A2
:101F200085B00021029001200091039004A9684629
:101F3000FEF75CFC002800D0022005B000BD0000C8
:101F40002DE9F04114460F4608A001F0AFFE002530
:101F50003226012F01D008A000E00CA001F0A6FE5F
:101F60006670A570E5700020BDE8F081636D6420A7
:101F70003D2025640D0A00004446555F4D45444907
:101F8000415F45524153450D0A0000004446555FEC
:101F90004D454449415F50524F4752414D0D0A0053
:101FA00010B5FEF7C1FC02493420C860002010BD06
:101FB0000020024070472DE9F04117460D460646C5
:101FC00000240EE03259291900230220FEF76CFC90
:101FD00018B930592959884202D00220BDE8F08151
:101FE000241DBC42EED30020F8E70000054808B5E8
:101FF000816941F004018161806900F00400009072
:1020000008BD00000010024010B500220F49104822
:1020100000F0AFFD08B1FEF74AFB0E490C4800F096
:1020200074FF08B1FEF743FB0B49094800F0C0FB01
:1020300008B1FEF73CFB064800F0BCFF002803D0C7
:10204000BDE81040FEF733BB10BD000000000020CB
:10205000500200209C0100208C000020FEE7FEE7DB
:102060002DE9F84F044640F68F7B48F60F7A4FF083
:1020700002094FF4806874E1B0F8441011F00F06C3
:102080003AD030F8267039047DD530F8261001EAB0
:102090000B0141F0800120F8261006EB860004EBCE
:1020A000C00595F8740105F5B47500286CD0E87882
:1020B00002286AD02878226832F8201048F68F73F8
:1020C000194048F2C003194322F820102878D4F8A8
:1020D00000C03CF82010BCF8502049047ED509EB24
:1020E000C000111808EB41003CF800008005800D8D
:1020F000009074D02A89D8E0C9062DD4018801EA5D
:102100000A0141F400410180216804F12805B1F879
:1021100050202B7809EBC300024408EB4200085A18
:10212000C0F309006064E16B0844E06300212046CD
:10213000FEF7CDFD94F8240000289CD0A869002863
:1021400099D194F82400216840F08000A1F84C0057
:10215000002084F8240004E1018804F5B4750A0520
:1021600021D5B0F850202B78062101EBC3010A4499
:1021700008EB4201405A04F52C71C0F30903EB61EE
:10218000EA88206802E0ACE068E07AE001F05CFDFB
:102190002168088800EA0B0040F080000880204693
:1021A000FFF7E3F9DDE00904D5D5018801EA0B0169
:1021B00041F0800101802068B0F850202B78062182
:1021C00001EBC3010A4408EB4201405A83059B0D11
:1021D000EB6110D0696971B1EA8801E058E056E01E
:1021E000206801F031FDE9696869084468610021EF
:1021F0002046FEF775FD2068018809052DD4B0F84A
:1022000050100844296900F20C4051B13E2910D801
:102210004A08C90700D0521C4FF6FF7101EA82211B
:102220000FE0018821F4F8410180018841F4004168
:1022300007E04A09C90600D1521E4FF4004141EAA5
:1022400082210180206801884BF68F72114081F451
:10225000405148F280021143018082E0D4F800C06E
:10226000BCF850102A78062000EBC200014408EBAD
:1022700041003CF800008005800D00901AD0EA88EB
:1022800013E03A4629462046FEF762FD009011E031
:10229000062101EBC000111808EB41003CF80000DA
:1022A0008005800D009005D06A8903466046696903
:1022B00001F0CAFCE96900980844E861696900987E
:1022C00008446861A86918B129690098814204D955
:1022D00029782046FEF704FD03E02946206801F036
:1022E00099F938063DD506EB860004EBC00120685D
:1022F00030F8262002EA0A0242F4004220F82620A2
:1023000091F82B002831032804D018B1022824D1D9
:10231000F80522D42368B3F850200D7809EBC500E6
:10232000024408EB4200185A8A69C0F3090082424D
:102330000CD9121A8A610BD04A6902444A61CA69EF
:102340001044C861206801F065F90AE00020886146
:10235000E9B22046FEF7BBFC03E03A462046FEF712
:102360006AFD2068B0F8441009043FF585AE0020EE
:10237000BDE8F88F70477047FEF7F2BB30B595B0F7
:1023800028216846FDF71BFF14210AA8FDF717FF57
:1023900018210FA8FDF713FF01210804CDE9001053
:1023A0000024029402250491CDE907504FF4E01077
:1023B00009906846FFF7F4FA08B172B6FEE70F20FD
:1023C000CDE90A054FF48060CDE90C4002210AA84E
:1023D0000E94FFF78BF908B172B6FEE71020149443
:1023E0000F900FA8FFF70CF9002801D072B6FEE796
:1023F00015B030BD7047000070B504460068016933
:10240000E26821F44051114301612169A068084349
:10241000616908432168CA6841F20C639A43024328
:10242000CA6020684169A26921F440711143416189
:102430001E492068884202D1FFF76CFA01E0FFF7DD
:1024400059FA00EBC00101EB0012606864218000C2
:10245000B2FBF0F3B3FBF1F36FF018067343B2FB7A
:10246000F0F5B2FBF0F605EB8305322303EB05151F
:10247000B5FBF1F5B6FBF1F605F0F00505EB061539
:10248000B2FBF0F6B2FBF0F0B0FBF1F06FF0180227
:10249000504306EB800003EB0010B0FBF1F0216825
:1024A00000F00F002844886070BD00000038014033
:1024B0002DE9F041984617460E460446069D1DE05C
:1024C000681C1BD02DB1FEF745FBA0EB0800A8420D
:1024D00014D92068C16821F4D071C16020684169B5
:1024E00021F001014161202084F83D0084F83E0084
:1024F000002084F83C000320BDE8F08120680068DB
:1025000036EA000004D00020B842D9D00020F3E71A
:102510000120F9E710B5D0F8B422526890470020A6
:1025200010BD134610B50A46002100F02DFC002016
:1025300010BD134610B50A46002100F0C9FC00206A
:1025400010BD10B50446802100F09EFC2046BDE879
:102550001040002100F098BC10B50323C0F85C21A6
:10256000C0F89432C0F8602113460A46002100F0FA
:102570000BFC002010BD10B505210023C0F89412FB
:102580001A46194600F000FC002010BD10B50223C9
:10259000C261C0F89432026213460A46002100F07C
:1025A00097FC002010BD10B504210023C0F8941240
:1025B0001A46194600F08CFC002010BD0020704720
:1025C0000020704770B50446D0F8B80200250221FB
:1025D000C0F80054C0F8045480F8181480F810545F
:1025E00080F81414D4F8B80248B1D4F8BC0204F549
:1025F0002E7480688047206800F06CFE2560002003
:1026000070BD0020704700007CB5D0F8B842064687
:1026100094F81804042802D007286BD06DE0D4F891
:102620000004002588B101283ED98002D4F808149E
:10263000A0F500600144D6F8BC02D4F80424036974
:102640002046984700B302207CBD207820B1212885
:1026500007D0412819D01CE0D4F80404012823D065
:1026600017E0D4F80404052813D16078A17800EBB2
:102670000120E17800EB0140217900EB016120A00D
:10268000C4F8081401F012FB0EE0D4F80404052885
:102690001AD0C4F804540120ADF806008DF800509B
:1026A00069463046FFF74DFFC4F804540320C4F8D0
:1026B000005484F8180484F8115484F8125484F8EF
:1026C000135484F8140418E06078A17800EB01201A
:1026D000E17800EB0140217900EB01610DA0C4F825
:1026E000081401F0E3FAD6F8BC12D4F80804C9685B
:1026F0008847A7E73046FDF7FDFE00207CBD0000BF
:10270000C9E8D6C3B9CCBCFECAD7B5D8D6B73D2523
:10271000780D0A00B2C1B3FDC9C8C7F8B5D8D6B79D
:10272000203D2025780D0A002421018000487047B3
:10273000D80100200A21018000487047FC010020D8
:1027400010B5062907D8D0F8BC020449006800F08B
:10275000E0F9024810BD002010BD0000400E00202E
:1027600010B5044640F21C4000F0B6FDC4F8B802B3
:10277000B0B100F5806000210A4AC0E90221016081
:102780004160417602220276017441748174C17401
:1027900002754175D4F8BC0240688047002800D01B
:1027A000022010BD00000108002070470020704783
:1027B00009B1C0F8BC12002070470020704700002B
:1027C000F8B500260D46ADF800602F78D0F8B812A5
:1027D00032463346344617F0600760D0202F6ED162
:1027E0006E780222072E6AD2DFE806F05504080C44
:1027F0000F3236002946FDF7B9FD83E02946FDF783
:10280000D1FE7FE0FDF7FCFD7CE091F818040A287A
:1028100011D00A2081F818040E2281F8102481F8C2
:10282000113481F8123481F8133481F8140400BF94
:1028300081F8153466E081F8182481F8103481F8A5
:10284000113481F8123481F8133481F81424EFE73D
:10285000012201F583613EE091F81804022807D0B7
:10286000032805D0052803D0062801D0092849D11E
:1028700081F8182481F8103481F8113481F8123469
:1028800081F8133481F8142481F81534C1F8003428
:10289000C1F8043436E02946FDF730FD32E06B78AC
:1028A00033B1062B0CD00A2B18D00B2B26D11DE0F0
:1028B00090F89C12032921D1022269460BE01DE009
:1028C00069882123B3EB112F04D1EA88104E092A1D
:1028D00000D909223146FFF759FE13E090F89C22F7
:1028E000032A0BD1012201F20C41F4E76A8812F0AD
:1028F000FF0F03D190F89C32032B05D02946FFF738
:1029000020FE02242046F8BDD0B2C1F80C04F9E73D
:10291000EA01002010B50A46024903A000F0F9F8C8
:10292000004810BD1405002044465520436F6E66D4
:1029300069670000122008800048704724000020CA
:1029400039200880004870473600002010B50A463C
:10295000024903A000F0DDF8004810BD1405002076
:1029600044465520496E74657266616365000000D7
:1029700004200880004870472000002010B50A4657
:10298000024903A000F0C5F8004810BD140500205E
:102990005354000010B50A46024903A000F0B9F8EC
:1029A000004810BD140500205745424446552046B6
:1029B00069726D776172652055706461746500009D
:1029C00010B51A2008800A480168001D0468001D1F
:1029D0000068081809D008220649FFF749FA054996
:1029E000042210312046FFF743FA0248801E10BD32
:1029F000E8F7FF1F72000020F8B504460020ADF88C
:102A0000000048880D46010A062956D006DC012937
:102A10000FD0022912D003295AD11DE0072955D021
:102A20000F2955D1D4F8B002C26921E06946904718
:102A30004AE0D4F8B012207C0A68F7E7207C02262E
:102A40000028D4F8B40205D0C16A68468847014618
:102A500046704AE0816AF8E7C1B2082924D2DFE86B
:102A600001F0040A0E12161A231ED4F8B0024268AE
:102A700072B3207CDAE7D4F8B0028268F8E7D4F8C1
:102A8000B002C268F4E7D4F8B0020269F0E7D4F803
:102A9000B0024269ECE7D4F8B0028269E8E7207C32
:102AA000694600F003FC0FE0D4F8B4128B6B7BB1E5
:102AB000C1B26A462046984706E0207C40B9D4F867
:102AC000B402416B6846884701460EE0207C20B185
:102AD00029462046FFF735FDF8BDD4F8B402016B56
:102AE00068468847014607204870BDF8000048B195
:102AF000EA8852B1824200D90246ADF80020204651
:102B0000FFF744FDE8880028E6D12046FFF74BFD9B
:102B1000F8BD70B5002300281ED00446002502E051
:102B20006D1CEDB2641C2678002EF9D1022404EB52
:102B3000450414801278CA545B1C0322CA54002432
:102B40005B1C06E0CA545B1CDAB28C54521CD3B234
:102B5000401C0278002AF5D170BD01004FF0000042
:102B600004D0012901D0022901D0022070470120A0
:102B7000704710B580B1D0F8B43213B10023C0F85B
:102B8000B43209B1C0F8B012012180F89C12027071
:102B900000F0B2F8002010BD022010BD10B5D0F832
:102BA000C002FEF7A7F8BDE81040FFF7D6BF2DE939
:102BB000F0411746044651B1D4F8B40242691AB143
:102BC00094F89C02032851D00220BDE8F081D4F88B
:102BD0009432002504F11400022B03D0042B3AD0C8
:102BE000C3B33CE0D0E903639E4207D9F11AC16048
:102BF0008AB239462046FFF79CFC12E08068B0FBA1
:102C0000F3F103FB110199B9984211D3D4F898124A
:102C100088420DD2002211462046FFF78AFCC4F8F4
:102C2000985200231A461946204600F0ADF816E0E7
:102C3000D4F8B402C16829B194F89C02032801D1E8
:102C4000204688478021204600F01EF92046FFF7E5
:102C500092FC04E0FFE78021204600F015F994F88B
:102C6000A002012804D184F8A05201E02046904738
:102C70000020AAE770B51546044649B1D4F8B4025D
:102C800082691AB194F89C02032830D0022070BDEA
:102C9000D4F8941204F5AA70032902D005291ED095
:102CA00027E0D0E903218A420BD9531AC3600846B2
:102CB000834200D303469AB229462046FFF731FCEF
:102CC00017E0D4F8B402016929B194F89C020328F2
:102CD00001D1204688472046FFF765FC09E0002027
:102CE0000146C4F89402204600F0CEF801E02046E8
:102CF0009047002070BD000010B513490446C1F88C
:102D0000E802C0F8C012114808600820486002209C
:102D1000886000208861C86108620846FEF76AFB87
:102D200008B1FDF7C4FC002218231146D4F8C002F4
:102D3000FDF7AEFF582300228021D4F8C002FDF732
:102D4000A7FF002010BD0000340B0020005C0040F5
:102D50000A0601F07F01D0F8C00201EB810100EB0F
:102D6000C10002D590F82A00704790F86A017047B8
:102D700010B51C461346D0F8C0022246FEF7F3F900
:102D8000BDE81040FFF7E9BE10B5D0F8C002FEF76D
:102D90001AFABDE81040FFF7E0BE70B50022044605
:102DA00040231146FFF7E4FF40260125C4F8646183
:102DB0003346002280212046C4F85851FFF7D8FF3F
:102DC0006662A56184F89C520020C4F89402606099
:102DD000C4F8A402D4F8B80228B1D4F8B40200218F
:102DE000426820469047002070BD90F89C1204294C
:102DF00003D190F89D1280F89C120020704710B506
:102E000090F89C12032904D1D0F8B412C96901B119
:102E10008847002010BD01740020704710B5D0F81D
:102E2000C002FEF78EFBBDE81040FFF796BE70B5FE
:102E3000044600F52A70054600F053F80120C4F856
:102E40009402B4F8AE02C4F8980294F8A80210F004
:102E50001F010AD001290DD0022910D000F08001F5
:102E6000204600F011F8002070BD2946204600F0F1
:102E7000A7F8F8E72946204600F0E4F9F3E72946E9
:102E8000204600F037F9EEE710B5D0F8C002FEF7A3
:102E9000B3F9BDE81040FFF760BE10B5D0F8C0022E
:102EA000FEF76AFBBDE81040FFF757BE10B5D0F83B
:102EB000C002FEF77AFBBDE81040FFF74EBE90F867
:102EC0009C1280F89D12042180F89C12002070470B
:102ED00010B5D0F8C002FEF7C8F9BDE81040FFF702
:102EE0003CBE0A7802704A7842708A78CB7802EB4E
:102EF000032242800A794B7902EB032282808A798D
:102F0000C97902EB0121C18070470246002011B14E
:102F1000C2F8B41270470220704710B5D0F8B4223E
:102F200002241AB11268904700B90024204610BD4F
:102F300070B50E461E4D897804462970012931D896
:102F400094F89C0202280BD003280FD0314620466B
:102F5000FFF7F7FA29782046BDE87040FFF7DABAA4
:102F6000D9B10320616084F89C0209E071B1606806
:102F7000884212D0C1B22046FFF7CCFA29786160AE
:102F80002046FFF7CAFF02280CD006E0022084F892
:102F90009C0220466160FFF7BDFA2046BDE8704004
:102FA000FFF701BB31462046BDE87040FFF7C9BAC4
:102FB0009801002010B5FFF770FF002010BD000041
:102FC0002DE9F0410A78002712F0600214D0202A7F
:102FD00001D0402A7CD14A78212A07D0222A79D1EF
:102FE0008988022976D12C22404960E08988072906
:102FF00070D1B2223E495AE04B78002201260A2BBA
:1030000066D2DFE803F0405D6557650805652C2949
:10301000FFF7F2FC5EE004468888D8B9C888C8B9D2
:103020004888802816D200F07F0594F89C02032877
:1030300010D084F89E5229462046FFF7EFFE204626
:10304000FFF7B1FA1DB1022084F89C0242E084F837
:103050009C623FE020463BE0FFF76AFF3AE0CB8806
:10306000012B35D190F89C32012B04D0022B02D0D9
:10307000032B2DD104E08260012200F1080116E04B
:103080000122011D13E090F89C22012A03D0022A9C
:1030900001D0032A1CD1CA88022A19D1C660D0F8EF
:1030A000A41209B10321C160022200F10C01FFF753
:1030B0006DFA0FE0498801290CD1C0F8A46211E033
:1030C00090F89C32012B08D0022B06D0032B04D0A1
:1030D000FFF737FA3846BDE8F08149880129F9D170
:1030E000C0F8A422FFF75FFAF4E700005A010020BD
:1030F000A80000202DE9F0410A4604461078002778
:10310000097910F060030AD0202B01D0402B50D158
:10311000D4F8B40211468368204698478FE0C0F384
:103120004110012806D05078D0B301282AD00328B6
:103130003FD107E0D4F8B402114683682046BDE8C9
:10314000F041184794F89C02022802D0032872D15B
:103150000AE071B380296ED02046FFF795FE8021EA
:103160002046FFF791FE6AE0508838B931B18029D6
:1031700004D0D08810B92046FFF786FE2046FFF71E
:1031800012FA5CE094F89C020228E2D0032852D1A3
:10319000508898BB4806F1D02046FFF7FFFCEDE7CA
:1031A000FFE794F89C020026022803D0032842D1AE
:1031B00012E040E009B180293DD1080601F07F000E
:1031C00000EB800004EB800101D5143101E001F532
:1031D000AA7102220E602AE0080601F00F0000EB3F
:1031E000800004EB80000AD5806920B301F07F00E5
:1031F00000EB800004EB800514350BE01FE0D0F8F5
:103200005801C0B101F07F0000EB800004EB8005A5
:1032100005F5AA7541B1802906D02046FFF798FD33
:1032200010B10120286000E02E60022229462046CD
:10323000FFF7ACF903E011462046FFF782F9384664
:10324000BDE8F08170B5054608780C4610F06000C6
:1032500003D0202801D0402816D195F89C020128DF
:1032600003D0022801D003280ED1207901280BD8E1
:10327000D5F8B402826828469047E188014306D118
:103280002846FFF790F902E02846FFF75AF9002098
:1032900070BD10B504460179D0F8B40242682046EA
:1032A00090472046FFF702FE002010BD10B50A46E9
:1032B000024903A0FFF72DFC004810BD14050020B3
:1032C00057454255534220496E7465726661636585
:1032D00000000000704700000048704714070020FD
:1032E0002DE9F0470C78002630F8243048F68F128C
:1032F0001340CA78002A7DD0012A7CD0022A02D04D
:10330000032A7FD0012648F28002134320F824309C
:103310000D7830F8254048F68F731C402C43144339
:1033200020F825400D7B48F2C00C48F6BF744CF2E3
:1033300080074BF68F79EDB391F80080C24630F8E4
:10334000285048F280181D4045EA080520F82A5008
:10335000B0F8505091F80080054405EB0815B1F81D
:10336000088028F00108A5F80084B0F8505091F8C2
:103370000080054405EB0815B1F80A8028F0010823
:10338000A5F808844D78002D0D7830F825804FEA97
:1033900048487DD0B8F1000F07DA30F8258008EAF8
:1033A000030848EA070820F825800F7830F82750EE
:1033B0006D0600E02CE006D530F827501D4045EAA8
:1033C0000C0520F82750CB780D78012B30F82530EC
:1033D00003EA040301D083F02003134320F82530CF
:1033E0000B7830F8231001EA0901114320F823106B
:1033F000304602E003E008E004E0BDE8F08743F473
:10340000007380E743F4C0637DE743F480637AE7A9
:103410004D782DB3B0F850500F78054405EB0715E3
:10342000CF8827F00107A5F800740F7830F82750EF
:103430006D0606D530F827501D4045EA0C0520F8EA
:103440002750CB78012B06D00B7830F82310214081
:1034500081F02001C9E70B7830F823102140C4E740
:10346000B0F850400D78044404EB0514CD8825F0E5
:103470000105A4F80854B0F850400D78044404EB5A
:1034800005140D6904F20C4475B13E2D14D800E00A
:1034900030E04FEA550CED0701D00CF1010C4FF66E
:1034A000FF7505EA8C2511E0258825F4F84525806F
:1034B000258845F4004509E04FEA551CED0601D189
:1034C000ACF1010C4FF4004545EA8C2525800D78C0
:1034D00030F82540640405D530F825401C403C43B5
:1034E00020F825400B7830F8231001EA090181F417
:1034F00040517AE7B8F1000F07DA30F8258008EA82
:10350000030848EA070820F825800F7830F827508C
:103510006D0606D530F827501D4045EA0C0520F809
:1035200027500D7830F8253003EA090383F440531F
:10353000134320F825308EE70020704700207047A5
:1035400000207047012120F8401F00210180818068
:1035500001820846704730F8401F21F43F41018046
:10356000002070470020704730B50A7BB2BB4A7814
:1035700048F68F7548F28004C2B10B7830F82320EA
:10358000520607D530F823202A4048F2C0052A43C6
:1035900020F82320CA78012A20D00A7830F8221097
:1035A00048F6BF73194081F0200114E00A7830F822
:1035B00022305B0407D530F822302B404CF28005D6
:1035C0002B4320F822300A7830F822104BF68F7304
:1035D000194081F44051214320F82210002030BDD1
:1035E00010B54A780978002A48F2800330F8212083
:1035F00005D048F6BF74224082F0100204E04BF67A
:103600008F74224082F480521A4320F82120002037
:1036100010BD00002DE9F0470E464B78097B0446AB
:103620004FF0000948F68F7248F2800A4FF6FF7794
:103630004FF40048012B09D000296ED0F078022801
:103640006CD001286BD00120BDE8F087B5693069E6
:10365000854200D90546C9B1F17848F280130229A4
:1036600023D0317834F821001040184324F8210089
:10367000306A401B3062307834F820104906717887
:103680007ED500297DD001297CD03FE1ABB2F28804
:103690002046716900F0F6FAB4F850003178204401
:1036A00000EB0110A0F80454EAE0316A81426AD9C3
:1036B000317834F821001040184324F82100306A92
:1036C000401B3062307834F82010490671786CD590
:1036D00011B1012924D02AE0B4F85010214401EBA3
:1036E000001000F20C404DB13E2D0FD86908EA07DA
:1036F00000D0491C07EA8121018018E0018821F4EB
:10370000F8410180018841F40041F5E76909EA06C2
:1037100000D1491E48EA8121EEE79CE1BCE126E2A6
:10372000B4F85020111901EB0010A0F80C54728964
:10373000ABB22046716900F0A5FA70692844706147
:103740003169306A884202D9401B306202E0054686
:10375000C6F82090707800287CD1B4F850003178F9
:10376000204400EB011000F204406DB13E2D13D84F
:103770006908EA0700D0491C07EA8121018012E0AC
:1037800001E19BE0BBE084E0018821F4F841018085
:10379000018841F40041F1E76909EA0600D1491EB8
:1037A00048EA8121EAE7328965E011B1012921D097
:1037B00027E0B4F85010214401EB001000F204405F
:1037C0004DB13E2D0FD86908EA0700D0491C07EA21
:1037D0008121018015E0018821F4F84101800188F0
:1037E00041F40041F5E76909EA0600D1491E48EABB
:1037F0008121EEE7B4F85010214401EB0010A0F84D
:1038000004543289ABB22046716900F03BFA70690A
:10381000284470613169306A884202D9401B3062A5
:1038200002E00546C6F82090707800287ED1B4F8F2
:1038300050003178204400EB011000F20C4055B1EB
:103840003E2D10D86908EA0700D0491C07EA8121FB
:1038500001800FE072E0018821F4F84101800188C5
:1038600041F40041F4E76909EA0600D1491E48EA3B
:103870008121EDE77289ABB22046716900F002FA4E
:10388000317834F8210048F6BF72104080F03000E3
:10389000C0E1327834F8220048F68F63184040EADD
:1038A0000A0024F82200B4F850003278204400EBDB
:1038B00002108BB2A0F804343289DDE7B4F850105E
:1038C000214401EB001000F20C404DB13E2D0FD809
:1038D0006908EA0700D0491C07EA8121018015E048
:1038E000018821F4F8410180018841F40041F5E7A5
:1038F0006909EA0600D1491E48EA8121EEE7B4F8D9
:103900005020111901EB0010A0F80C547289ABB2D1
:103910002046716900F0B6F9706928447061316918
:10392000306A884203D9401B306203E06EE00546EE
:10393000C6F82090002DA3D0707858B101287FF4EC
:103940001EAFB4F850003178204400EB0110A0F80D
:10395000045428E7B4F850003178204400EB0111FA
:1039600001F204413E2D06D86808EA0700D0401C49
:1039700007EA802005E06809EA0600D1401E48EA0F
:10398000802008800FE711B1012921D027E0B4F889
:103990005010214401EB001000F204404DB13E2DC7
:1039A0000FD86908EA0700D0491C07EA8121018085
:1039B00015E0018821F4F8410180018841F40041BB
:1039C000F5E76909EA0600D1491E48EA8121EEE7D8
:1039D000B4F85010214401EB0010A0F804543289CF
:1039E000ABB22046716900F04DF9706928447061EE
:1039F0003169306A884202D9401B306202E00546D4
:103A0000C6F82090002D96D0707858B101287FF428
:103A100020AFB4F850100819317800EB0110A0F86D
:103A20000C5427E7B4F850003178204400EB011122
:103A300001F20C413E2D06D86808EA0700D0401C70
:103A400007EA802005E06809EA0600D1401E48EA3E
:103A5000802008800EE7B1693069814202D9091AD5
:103A6000B161B5E00846C6F81890B1E0088820F4C6
:103A7000F8400880088840F400400BE03E2875D8E4
:103A80004208C00700D0521C07EA822002E000BFB3
:103A900048EA82200880B5E093B9B4F85000317844
:103AA000204400EB0110316900F2044069B13E2965
:103AB00013D84B08C90700D05B1C07EA832101809B
:103AC000707888B1012832D03AE0018821F4F841B9
:103AD0000180018841F40041F1E74B09C90600D19A
:103AE0005B1E48EA8321EAE7B4F8500031782044AD
:103AF00000EB0110316900F20C4049B13E290FD8AA
:103B00004B08C90700D05B1C07EA8321018017E03E
:103B1000018821F4F8410180018841F40041F5E772
:103B20004B09C90600D15B1E48EA8321EEE7B4F8D1
:103B300050100819317800EB0110318AA0F80C14EC
:103B4000F069A8B3317834F82100430401D5430665
:103B500003D444F24003184254D134F821001040F9
:103B600048F2C002104324F821004BE03CE0B16968
:103B70003069814202D9091AB16102E00846C6F8EB
:103B800018908BB9B4F850103278214401EB02112F
:103B900001F2044168B13E2813D84208C30700D09F
:103BA000521C07EA82220A80717889B1012921D04A
:103BB00028E00A8822F4F8420A800A8842F4004287
:103BC000F1E74209C30600D1521E48EA8222EAE721
:103BD000B4F850103278214401EB021101F20C418B
:103BE00000287FF44BAF41E74209C0067FF450AF95
:103BF000521E4DE7B4F850201119327801EB021132
:103C0000A1F80C04317834F821004BF68F72104083
:103C100080F4405040EA0A0024F82100002013E517
:103C20000021A0F844104FF43F41A0F840100020BC
:103C3000704700000148FDF732BB0000340B002044
:103C4000B0F844007047000010B500EB42005C087B
:103C500000F5806009D000BF30F8042B01F8012B7B
:103C6000120A01F8012B641EF6D1DA0701D0008890
:103C7000087010BD0020704711B98021A0F84C10C9
:103C80000020704710B55B1C00EB42005B0800F59C
:103C9000806009D011F8012B11F8014B42EA04228F
:103CA00020F8042B5B1EF5D110BDFEE70FB4054BC9
:103CB00010B503A9044A029800F028F810BC5DF87A
:103CC00014FB000009400008080200200907090E43
:103CD000002804DB00F1E02080F80014704700F0B9
:103CE0000F0000F1E02080F8141D704702E008C8C2
:103CF000121F08C1002AFAD170477047002001E066
:103D000001C1121F002AFBD1704700002DE9FF4FAF
:103D10008DB09B460F460446002606E025280BD0B2
:103D20005A460F999047641C761C20780028F5D1DC
:103D300011B03046BDE8F08F0025A8460122984911
:103D400000E0054314F8013F203B02FA03F008426B
:103D5000F7D120782E2817D114F8010F45F004056B
:103D60002A280ED06FF02F022078A0F13001092907
:103D70000AD808EB880102EB410100EB0108641C42
:103D8000F2E757F8048B641C20786C280DD004DC13
:103D90004C2812D06A2811D104E074280DD07A285A
:103DA0000CD10AE045F4001507E0617845F4801570
:103DB000814202D1641C05F58015641C20786928B5
:103DC00044D008DC0028B3D0582867D063280FD02F
:103DD000642808D13AE0702865D0732812D075287D
:103DE0005AD078285AD05A460F999047761CD5E079
:103DF00017F8040B8DF8000000208DF80100E9464B
:103E0000012003E057F8049B4FF0FF3069074FF0A3
:103E1000000501D40AE06D1C45450DDA8542FADB48
:103E200019F805100029F6D106E06D1C8542FCDB6F
:103E300019F805100029F8D12E4404E019F8010BF7
:103E40005A460F9990476D1EF8D2A7E00A2000212C
:103E5000CDE90801C5F3025002280CD001CFC117EB
:103E6000021E71F100020CDA0023D0EB030063EBB9
:103E700001012D2208E0FF1D27F00707F7E80201E6
:103E8000EEE72A0504D52B228DF8282001223CE0FC
:103E9000EA073AD02022F7E70A2000E010200021AC
:103EA000CDE9080107E01020002145F00405CDE927
:103EB00008014FF00808C5F30250022810D001CFC6
:103EC00000214FF0000A2A0720D52278702A0DD051
:103ED000DDE908C38CF0100C5CEA030C0CD015E093
:103EE000FF1D27F00707F7E80201EAE740228DF8F7
:103EF00028204FF0010A0CE050EA010306D03023DD
:103F00008DF828308DF82920022292462278582AEE
:103F100004D024A20DF120090B9209E026A2F9E7B2
:103F2000DDE90823FCF756F90B9B9B5C09F8013D82
:103F300050EA0102F4D1ADEB090020300890680787
:103F400001D44FF001080899884503DD0898A8EBD3
:103F5000000000E000208046002506E00AA85A463E
:103F6000405D0F9990476D1C761C5545F6DB04E0CB
:103F700030205A460F999047761CB8F10001A8F1FD
:103F80000108F5DC05E019F8010B5A460F99904736
:103F9000761C0899481E08900029F4DC641CC4E6CD
:103FA000092801003031323334353637383961620F
:103FB00063646566000000003031323334353637D3
:103FC00038394142434445460000000000B585B001
:103FD0000020019003900A48816941F00401816149
:103FE0008069694600F0040004904FF4004000909E
:103FF000012002900348FCF7ABFC05B000BD0000B7
:10400000001002400008014013B54FF47A730122FA
:1040100069460248FDF7D2FE00981CBD0C02002044
:10402000FCF7A6FDFEF7AAF9FDF7E0FFFCF752F951
:10403000FFF7CCFF00F01EF820B105A0FFF736FE19
:10404000FDF732FF05A0FFF731FEFDF7DDFFFEE7CC
:10405000BDF8C8EB6170700D0A0000004B65792057
:10406000446F776E20456E746572204446550D0A84
:104070000000000010B54FF400410348FCF764FD58
:10408000002800D0012010BD000801400000000001
:1040900000000000010203040607080900000000F8
:1040A0000102030440496E7465726E616C20466CB7
:1040B0006173682020202F30783038303030303035
:1040C000302F3235362A30324B67642C0000000026
:1040D000F0400008000000200C0200007A020008F6
:1040E000744200080C02002034150000FC3C00085B
:1040F0001335291B0871041A7D041A95041AC1048A
:104100001A15041A4D041A41043009040309041253
:104110000110021640830411DF100902010203019D
:10412000050F391502181005101138B60834A90901
:10413000A0478BFDA0768815B6651D0122011C18CD
:104140002011DF60DDD88945C74C9CD2659D9E64F7
:104150008A9F140306B22221031A1A0313A4401CD7
:1041600008A11F8019041A1F041AB7041AB5041AEB
:104170004104520A2945120832011AA8081A020AF3
:1041800012A012141203A757494E5553421284121B
:10419000041207122A12441265127612691A630871
:1041A0001249126E1A7408127212663A611212479C
:1041B0001A5516124432731250127B123912641AB5
:1041C000370412651A620212631A2D0412381A3566
:1041D00012122D1A31021A64041A2D2629201A34BB
:1041E0000A1A30023A36061A382A1A33561A311E7B
:1041F0001261527D181E2C0301646576616E6C613C
:10420000692E6769746875622E696F2F77656264BD
:1042100066752F04962D7574696C29D48210532409
:10422000F41361271408C5251B08C1081309261BB0
:104230000803042ABD1019041ABB141AA9041AADE4
:10424000049A29041A35042A413013022430080242
:104250000104C03209042009FE01020609210FFFF2
:104260001E041A0109046D190B11130A0632022AE1
:04427000407C41004D
:0400000508000131BD
:00000001FF
